:100000000C9462000C948A000C948A000C948A0070
:100010000C948A000C948A000C948A000C948A0038
:100020000C948A000C948A000C948A000C948A0028
:100030000C948A000C94F3080C948A000C948A00A7
:100040000C948E070C948A000C945C070C94360771
:100050000C948A000C948A000C948A000C948A00F8
:100060000C94D8070C948A0000000000240027009C
:100070002A0000000000250028002B0000000000DE
:1000800023002600290004040404040404040202DA
:100090000202020203030303030301020408102007
:1000A0004080010204081020010204081020000012
:1000B0000008000201000003040700000000000027
:1000C00000001A0911241FBECFEFD8E0DEBFCDBF5C
:1000D00011E0A0E0B1E0E6EDF2E202C005900D9281
:1000E000AE3DB107D9F723E0AEEDB1E001C01D92FE
:1000F000AC35B207E1F710E0C2E6D0E004C02197CA
:10010000FE010E946311C136D107C9F70E9462093E
:100110000C9469110C940000AF92BF92CF92DF92C1
:10012000EF92FF920F931F93CF93DF936C017B01AC
:100130008B01040F151FEB015E01AE18BF08C0173D
:10014000D10759F06991D601ED91FC910190F081B0
:10015000E02DC6010995892B79F7C501DF91CF9173
:100160001F910F91FF90EF90DF90CF90BF90AF90D5
:100170000895FC01538D448D252F30E0842F90E0AD
:10018000821B930B541710F0CF9608950197089592
:10019000FC01918D828D981761F0A28DAE0FBF2F5B
:1001A000B11D5D968C91928D9F5F9F73928F90E0B1
:1001B00008958FEF9FEF0895FC01918D828D981720
:1001C00031F0828DE80FF11D858D90E008958FEF5D
:1001D0009FEF0895FC01918D228D892F90E0805C26
:1001E0009F4F821B91098F739927089587EA92E0A8
:1001F0000E94EA0021E0892B09F420E0822F089573
:1002000080E090E0892B29F00E94F60081110C9487
:1002100000000895FC01A48DA80FB92FB11DA35AA9
:10022000BF4F2C91848D90E001968F739927848F16
:10023000A689B7892C93A089B1898C918370806439
:100240008C93938D848D981306C00288F389E02DDA
:1002500080818F7D80830895EF92FF920F931F938B
:10026000CF93DF93EC0181E0888F9B8D8C8D981369
:100270001AC0E889F989808185FF15C09FB7F89475
:10028000EE89FF896083E889F989808183708064C1
:1002900080839FBF81E090E0DF91CF911F910F910C
:1002A000FF90EF900895F62E0B8D10E00F5F1F4F1B
:1002B0000F731127E02E8C8D8E110CC00FB607FC2A
:1002C000FACFE889F989808185FFF5CFCE010E94B8
:1002D0000A01F1CFEB8DEC0FFD2FF11DE35AFF4F1B
:1002E000F0829FB7F8940B8FEA89FB898081806246
:1002F000CFCFCF93DF93EC01888D8823B9F0AA8903
:10030000BB89E889F9898C9185FD03C0808186FDD0
:100310000DC00FB607FCF7CF8C9185FFF2CF80811F
:1003200085FFEDCFCE010E940A01E9CFDF91CF9189
:100330000895833081F028F4813099F08230A9F05B
:1003400008958730A9F08830C9F08430B1F48091E5
:1003500080008F7D03C0809180008F778093800024
:10036000089584B58F7784BD089584B58F7DFBCFC4
:100370008091B0008F778093B00008958091B00095
:100380008F7DF9CF1F93CF93DF93282F30E0F901B2
:10039000E255FF4F8491F901E656FF4FD491F901E0
:1003A000EA57FF4FC491CC23A9F0162F81110E9468
:1003B0009901EC2FF0E0EE0FFF1FEE58FF4FA591D3
:1003C000B4918FB7F894EC91111108C0D095DE2349
:1003D000DC938FBFDF91CF911F910895DE2BF8CF73
:1003E000CF93DF9390E0FC01E656FF4F24918A57AC
:1003F0009F4FFC0184918823D1F090E0880F991FD2
:10040000FC01E859FF4FA591B491FC01EE58FF4F54
:10041000C591D49161110EC09FB7F8948C91E22FD1
:10042000E0958E238C932881E223E8839FBFDF91A0
:10043000CF9108958FB7F894EC91E22BEC938FBF96
:10044000F6CF3FB7F8948091790290917A02A0910B
:100450007B02B0917C0226B5A89B05C02F3F19F006
:100460000196A11DB11D3FBFBA2FA92F982F882734
:10047000BC01CD01620F711D811D911D42E0660F0F
:10048000771F881F991F4A95D1F708958F929F92E1
:10049000AF92BF92CF92DF92EF92FF924B015C013D
:1004A0000E9421026B017C010E9421026C197D09CE
:1004B0008E099F09683E734081059105A8F321E0EC
:1004C000821A9108A108B10888EEC80E83E0D81EF0
:1004D000E11CF11C81149104A104B10429F7FF90DF
:1004E000EF90DF90CF90BF90AF909F908F90089546
:1004F0001F93CF93DF93C1E0C0930D02882399F13E
:10050000D091B8001091BA008091BC008A7B809392
:10051000BC0060E082E10E94C20160E083E10E94D1
:10052000C20110925202C09354021092530261E031
:1005300082E10E94C20161E083E10E94C2018091D8
:10054000B9008E7F8093B9008091B9008D7F809330
:10055000B90088E48093B80085E48093BC001093D0
:10056000BA00D093B800DF91CF911F9108952091E8
:100570002E02260F3327331F21323105ECF4209150
:100580005202FC0190E080E0243069F082E008959E
:10059000A0912E022191AC01425F5D4FA40FB52FB7
:1005A000B11D2C930196861798F380912E02680F47
:1005B00060932E0280E0089581E0089508958FEF02
:1005C0009FEF08958FEF9FEF08958091070290E0CD
:1005D0009195819591090895CF92DF92EF92FF92C4
:1005E0000F931F93CF93DF937C01CB018A0120915E
:1005F0000602222389F0EB016B01C40ED51ECC1537
:10060000DD0569F06991D701ED91FC910190F081D0
:10061000E02DC7010995F3CF642F0E94B702C801EE
:10062000DF91CF911F910F91FF90EF90DF90CF90CE
:100630000895CF93DF931F92CDB7DEB769832091E2
:1006400006022223F9F020910502203258F021E021
:1006500030E0FC013383228390E080E00F90DF9153
:10066000CF91089580910402E82FF0E0EC51FE4F05
:10067000998190838F5F809304028093050281E0CB
:1006800090E0ECCF61E0CE0101960E94B702F7CF77
:10069000CF92DF92EF92FF920F931F93CF93DF934E
:1006A000FC01C48121E020930602C093E301109273
:1006B0000402109205028385682B84E493E00E9473
:1006C0001903D0910502D13208F092C00E94210294
:1006D0006B017C0180915202811165C082E08093A0
:1006E000520281E0809354028FEF80935102109266
:1006F0007602D0937502A4EEB1E0E5E5F2E080E089
:10070000D81385C01092770280917702CC0FC82B46
:10071000C093770280915302813009F07CC010921F
:1007200053020E9421026B017C0180917702809329
:10073000BB008091090290910A02A0910B02B09136
:100740000C02892B8A2B8B2B99F00E94210200919D
:10075000090210910A0220910B0230910C026C19CF
:100760007D098E099F090617170728073907E0F149
:100770008091BC0083FDD9CF85EC8093BC000E94A2
:1007800021026B017C0180915202823009F445C044
:10079000809151028F3F61F180915102803241F18D
:1007A0008091510225C08091090290910A02A09186
:1007B0000B02B0910C02892B8A2B8B2B09F48ACF68
:1007C0000E9421020091090210910A0220910B025D
:1007D00030910C026C197D098E099F0906171707C5
:1007E0002807390708F076CF809108020E94780226
:1007F000109204021092050210920602DF91CF912E
:100800001F910F91FF90EF90DF90CF9008959D91F1
:1008100091938F5F75CF85EEB0CF80910902909153
:100820000A02A0910B02B0910C02892B8A2B8B2B10
:1008300009F4A9CF0E9421020091090210910A0235
:1008400020910B0230910C026C197D098E099F09D1
:10085000061717072807390708F095CFC5CF089561
:1008600090E080E00895CF93C82F8091E2018C172B
:1008700059F0882319F061E00E94C20160E08C2FDA
:100880000E94C201C093E201CF9108950F931F937C
:10089000CF93DF9380918D0290918E0285369105E2
:1008A0000CF450C084E690E090938E0280938D0209
:1008B000C0918D02D0918E02C436D1050CF048C093
:1008C00081E08093810280EA90E09093800280939F
:1008D0007F02909387008093860081E1809381005E
:1008E00061E089E00E94F00180918000806880933F
:1008F000800000917F02109180022FEF33E0DE0133
:100900000E94511124E630E040E050E00E942311A3
:1009100044275527D8010E9458112AE096958795BB
:10092000779567952A95D1F7709389006093880031
:1009300080918102806180938100DF91CF911F912E
:100940000F910895CC970CF0B3CF8CE390E0ACCF2F
:10095000C436D10591F781E08093810280EA90E06E
:100960009093800280937F0290938700809386000B
:1009700081E18093810061E089E00E94F001809133
:10098000800080688093800020917F0230918002F7
:10099000AEEFB3E00E944211C0CF8091E001909190
:1009A000E101813523EC920730F401969093E10147
:1009B0008093E00108951092E1011092E00180918E
:1009C000DE019091DF0101969093DF018093DE01BB
:1009D000089548E050E030E020E08064A3ECB0E00F
:1009E00080937C0090917A00906490937A0090912B
:1009F0007A0096FDFCCF9091780060917900762F77
:100A0000692F260F371FFD013197F1F7415051092A
:100A100039F7C90137FD079623E0959587952A9503
:100A2000E1F70895FC0101900020E9F73197AF014B
:100A3000481B590BBC0180E593E00C948C008F920D
:100A40009F92AF92BF920F931F93CF93DF93CDB737
:100A5000DEB7A1970FB6F894DEBF0FBECDBF19A2C7
:100A6000423008F44AE08E010F5D1F4F842E912C16
:100A7000B12CA12CA50194010E940111E62FB9010E
:100A8000CA01EA30F4F4E05DD801EE938D01232B26
:100A9000242B252B79F790E080E0109719F0CD01F9
:100AA0000E941205A1960FB6F894DEBF0FBECDBF0F
:100AB000DF91CF911F910F91BF90AF909F908F903A
:100AC0000895E95CE1CF0C9412050F931F93CF9327
:100AD0008C01C62F0E9448036C2F6460C8010E94DD
:100AE00048036C2F6B7FC8010E94480383EC90E0A1
:100AF0000197F1F7CF911F910F9108950F931F93D5
:100B0000CF93DF938C01D62FC42F607F642B0E947C
:100B1000650580E1D89FB00111246C2BC801DF91DD
:100B2000CF911F910F910C94650541E00E947E05C5
:100B300081E090E0089541E0682F80E593E00E9415
:100B40007E0581E090E00895CF92DF92EF92FF92D0
:100B5000CF93DF936C01990FEE08FF08F7FE17C0E3
:100B60008DE20E949B05EC0166277727CB016C196B
:100B70007D098E099F094AE00E941F058C0F9D1F69
:100B8000DF91CF91FF90EF90DF90CF9008954AE0F2
:100B9000C701B601DF91CF91FF90EF90DF90CF902A
:100BA0000C941F054F925F926F927F928F929F924B
:100BB000AF92BF92CF92DF92EF92FF920F931F936B
:100BC000CF936B017C01742EAC019B010E94D41069
:100BD000882399F08AE891E0CF911F910F91FF90BF
:100BE000EF90DF90CF90BF90AF909F908F907F90CD
:100BF0006F905F904F900C94120546015701E89456
:100C0000B7F82FEF3FEF4FE75FE7C501B4010E9450
:100C1000D41081110DC02FEF3FEF4FE75FE7C50103
:100C2000B4010E94030F18161CF48EE891E0D4CF93
:100C30002FEF3FEF4FE75FE4C701B6010E9462105C
:100C400018161CF482E991E0C7CF2FEF3FEF4FE772
:100C50005FECC701B6010E94030F87FDF3CF20E0D0
:100C600030E0A901C701B6010E94030F10E000E0C7
:100C700087FF08C08DE20E949B058C01F7FAF09473
:100C8000F7F8F094C0E060E070E080E09FE37C164D
:100C900041F020E030E040E251E40E94080FCF5FD5
:100CA000F6CFA70196010E94970E2B013C010E94EE
:100CB000810F4B015C014AE00E941F057C01E00EA0
:100CC000F11ECC23B1F1C501B4010E94B00F9B010C
:100CD000AC01C301B2010E94960E4B015C018EE291
:100CE0000E949B05E80EF91EC15018F120E030E08B
:100CF00040E251E4C501B4010E9467102B013C01A0
:100D00000E94810F4B01B12CA12C4AE0C501B40116
:100D10000E941F05E80EF91EC501B4010E94B00F24
:100D20009B01AC01C301B2010E94960E4B015C0114
:100D3000DBCFC701CF911F910F91FF90EF90DF9014
:100D4000CF90BF90AF909F908F907F906F905F906B
:100D50004F900895CF93DF93CDB7DEB728970FB6A6
:100D6000F894DEBF0FBECDBF98E0EDE4F1E0DE0108
:100D7000119601900D929A95E1F79091580396176C
:100D800010F46FEF690F262F30E0220F331F41E080
:100D900050E04C0F5D1F240F351FF9016081680F73
:100DA000606840E080E593E028960FB6F894DEBFD7
:100DB0000FBECDBFDF91CF910C947E050F931F9393
:100DC000CF93DF938B01877098E0899FB001112446
:100DD000606440E080E593E00E947E05E801085FE2
:100DE0001F4F699180E593E00E949505C017D107D8
:100DF000C1F7DF91CF911F910F91089585ED8093F9
:100E0000BC008091090290910A02A0910B02B0915E
:100E10000C020796A11DB11D23E0B695A7959795E5
:100E200087952A95D1F72091BC0024FD03C010922C
:100E3000520208954091090250910A0260910B02FA
:100E400070910C02452B462B472B69F30097A105A7
:100E5000B10541F025E32A95F1F700000197A109BA
:100E6000B109E1CF809108020C9478021F920F9291
:100E70000FB60F9211242F933F934F935F936F936D
:100E80007F938F939F93AF93BF93EF93FF9387EAE3
:100E900092E00E940A01FF91EF91BF91AF919F9163
:100EA0008F917F916F915F914F913F912F910F9013
:100EB0000FBE0F901F9018951F920F920FB60F92B2
:100EC00011242F938F939F93EF93FF93E091B70299
:100ED000F091B8028081E091BD02F091BE0282FDE6
:100EE0001BC090818091C0028F5F8F732091C102DF
:100EF000821741F0E091C002F0E0E955FD4F958F77
:100F00008093C002FF91EF919F918F912F910F904D
:100F10000FBE0F901F9018958081F4CF1F920F92F3
:100F20000FB60F9211242F933F938F939F93AF93FC
:100F3000BF938091880290918902A0918A02B0911A
:100F40008B023091780223E0230F2D3758F501965C
:100F5000A11DB11D2093780280938802909389028D
:100F6000A0938A02B0938B028091790290917A02C9
:100F7000A0917B02B0917C020196A11DB11D8093CE
:100F8000790290937A02A0937B02B0937C02BF9186
:100F9000AF919F918F913F912F910F900FBE0F9026
:100FA0001F90189526E8230F0296A11DB11DD2CFE0
:100FB0001F920F920FB60F9211242F933F934F93CE
:100FC0005F936F937F938F939F93AF93BF93EF93B1
:100FD000FF938091B900887F803609F44AC0F0F50C
:100FE000883209F4A5C018F5803109F499C0B8F425
:100FF000882309F4F5C0883009F492C0FF91EF917D
:10100000BF91AF919F918F917F916F915F914F9120
:101010003F912F910F900FBE0F901F901895883120
:1010200009F486C0803251F78093510214C0803495
:1010300009F49BC040F48033B9F38833F9F6809308
:10104000510285ECAEC0803509F483C0883509F4BF
:1010500094C0883499F60E94FE06D0CF883909F4EE
:101060008AC038F5883729F050F4883611F0803777
:1010700029F683E0809352021092500255C08838BE
:1010800009F479C0803919F0803809F0B7CF809120
:101090005002803208F06FC0E091500281E08E0F64
:1010A000809350028091BB00F0E0E05DFD4F8083B3
:1010B0003BC0803B39F0D0F4803A09F477C0883ADD
:1010C00009F09CCF84E08093520210922F0210927C
:1010D0002E02F0E0E0E0099580912E0281110FC010
:1010E00081E080932E0210920E0209C0803C09F428
:1010F000A8CF883C09F4A5CF883B09F07FCFE091C9
:101100002F0281E08E0F80932F02F0E0E25FFD4F0F
:1011100080818093BB0090912F0280912E0229C084
:10112000809177028093BB0085EC8093BC0066CFF2
:101130009091760280917502981758F5E0917602A9
:1011400081E08E0F80937602F0E0EB5AFD4F8081B4
:10115000E9CFE091760281E08E0F80937602809154
:10116000BB00F0E0EB5AFD4F8083909176028091B6
:1011700075029817C8F285E8D8CFE091760281E031
:101180008E0F809376028091BB00F0E0EB5AFD4F0A
:1011900080838091540281115ECF81E0809353025D
:1011A00084EA8093BC001092520228CF85EC809391
:1011B000BC001092520280915002803230F4E091D3
:1011C0005002F0E0E05DFD4F10826091500270E04F
:1011D00080E392E0F0E0E0E00995109250020ECF3B
:1011E0001092510238CF1F920F920FB60F92112416
:1011F0002F933F934F935F936F937F938F939F931F
:10120000AF93BF93EF93FF93E0917D02F0917E0245
:101210000995FF91EF91BF91AF919F918F917F9130
:101220006F915F914F913F912F910F900FBE0F9053
:101230001F901895E7EAF2E01382128288EE93E09D
:10124000A0E0B0E084839583A683B7832EE531E0E8
:101250003183208325EC30E03587248724EC30E08F
:101260003787268720EC30E0318B208B21EC30E073
:10127000338B228B22EC30E0358B248B26EC30E054
:10128000378B268B118E128E138E148EE4E4F3E0CE
:101290001382128284839583A683B78380E791E0CB
:1012A00091838083E0E5F3E01382128282E891E08B
:1012B000918380838FE3848384E1818784E08287C4
:1012C00013860895CF93DF9300D000D0CDB7DEB75B
:1012D000789484B5826084BD84B5816084BD85B511
:1012E000826085BD85B5816085BD80916E0081601D
:1012F00080936E00109281008091810082608093C3
:1013000081008091810081608093810080918000C4
:101310008160809380008091B10084608093B100EF
:101320008091B00081608093B00080917A008460E9
:1013300080937A0080917A00826080937A00809115
:101340007A00816080937A0080917A00806880932F
:101350007A001092C10061E088E00E94F00160E034
:1013600088E00E94C2011092900210928F02809138
:10137000550388608093550314E01093580362E38B
:1013800070E080E090E00E94460260915B0380E59F
:1013900093E00E94480368EE73E080E090E00E94D2
:1013A000460260E380E593E00E9465058BE496E4E5
:1013B0000197F1F760E380E593E00E9465052BE477
:1013C00036E4C9010197F1F760E380E593E00E94FC
:1013D000650583E592E00197F1F760E280E593E02F
:1013E0000E94650560915503606240E080E593E0EE
:1013F0000E947E051093560340E06CE080E593E088
:101400000E947E0540E061E080E593E00E947E0559
:101410008BE39FE10197F1F782E08093570340E06F
:1014200066E080E593E00E947E0540E062E080E5B2
:1014300093E00E947E05EBE3FFE13197F1F788E04E
:1014400080935B0360E080E593E00E94480308E13D
:1014500011E01982B80189810E94DE06F981FF5FDF
:10146000F983085F1F4FF630A9F760E171E087E06C
:101470000E94DE0668E071E086E00E94DE0660E021
:1014800071E08CE50E94DE0661E08DE00E94F001D3
:1014900061E08BE00E94F00161E08CE00E94F001CD
:1014A00080E1809381001092800021E020938102EE
:1014B00080EA90E09093800280937F02909387006F
:1014C0008093860081E18093810061E089E00E9441
:1014D000F0018091800080688093800010928900E4
:1014E00010928800809181028061809381008DEC50
:1014F00094E090937E0280937D0231E030936F0000
:10150000E091B702F091B80282E08083E091B302EB
:10151000F091B4021082E091B502F091B6028FEC26
:1015200080831092BF02E091BB02F091BC028981DE
:101530008083E091B902F091BA028081806180835A
:10154000E091B902F091BA02808188608083E091D5
:10155000B902F091BA02808180688083E091B9027B
:10156000F091BA0280818F7D80838AE590E090932C
:101570008E0280938D0260E085E00E94F00161E0C0
:1015800086E00E94F00160E086E00E94C20160E017
:1015900085E00E94C20160E080E00E94AA0686E920
:1015A00091E00E94630560E084E00E94AA0666E084
:1015B00080E593E00E94950560E088E00E94AA061D
:1015C0008AE991E00E94630593E0292E312C09E01D
:1015D00010E082E090E00E94E904BC01990F880BC2
:1015E000990B0E94B20F2AEF30EC48EC5CE30E94AA
:1015F000671026EF38E248E551E40E94960E4B0151
:101600005C018092990290929A02A0929B02B09201
:101610009C0290E080E00E94E904BC01990F880BD5
:10162000990B0E94B20F29EA3BEF4BEC5CE30E945E
:1016300067102B013C0140929D0250929E026092E5
:101640009F027092A00281E090E00E94E904BC0138
:10165000990F880B990B0E94B20F25EC31E34CECEB
:101660005CE30E9467106B017C01C0929102D092F2
:101670009202E0929302F0929402A3019201C501BA
:10168000B4010E9467104B015C0180929502909218
:101690009602A0929702B092980280918F02909148
:1016A00090028130910559F008F491C18230910582
:1016B00009F4E8C0039709F43BC160E0B0C120E041
:1016C00030E040E85FE3C501B4010E94030F87FFEB
:1016D00018C01092900210928F0210934B01009349
:1016E0004A0160E088E00E94C20120E030E048E367
:1016F00051E4C701B6010E9462101816DCF461E0E3
:101700001AC020E030E048E551E4C701B6010E946C
:10171000621018160CF074C03092900220928F0262
:1017200020E030E040E85FE3C501B4010E94030F10
:1017300087FDDBCF60E080918C02681729F0609311
:101740008C0286E00E94C2012AE939E941E651E4AF
:10175000C701B6010E94621018160CF085C18CE01A
:101760000E943304E3EBF0E08491EFE9F0E0E490D1
:10177000EBE8F0E0F490FF2009F484C181110E94AD
:101780009901EF2DF0E0EE0FFF1FE458FF4FA591F8
:10179000B4918C91E82231E020E009F430E0832F0D
:1017A000922F9093A6028093A50220914C012817B6
:1017B000190609F493C221E0009709F420E0209370
:1017C0004C01019709F061C188E080935B0360E000
:1017D00080E593E00E9448032FB7F8948091880237
:1017E00090918902A0918A02B0918B022FBF8093C1
:1017F000A1029093A202A093A302B093A4024CC1B1
:1018000020E030E040EA50E4C501B4010E94030F3B
:1018100087FF09C0E4E6F0E0F0938E02E0938D02CA
:101820000E9446047DCF20E030E040E251E4C70151
:10183000B6010E94671069837A838B839C8320E0C2
:1018400030E040E251E4C301B2010E94080F9B0165
:10185000AC0169817A818B819C810E94080F20E014
:1018600030E040EA50E40E94970E0E947A0F709395
:101870008E0260938D0282E090E0909390028093BC
:101880008F024ECF20E030E040E85FE3C501B401B5
:101890000E94030F87FD1DCF2AE939E949E551E48C
:1018A000C701B6010E94621018160CF435CF20E073
:1018B00030E040EA50E4C501B4010E94030F87FF05
:1018C00007C081E090E09093900280938F02A6C0C1
:1018D000A50194016091820270918302809184023B
:1018E000909185020E94621087FD0BC08091480193
:1018F0009091490191958195910990934901809327
:10190000480180918D0290918E0220914801309182
:101910004901820F931F90938E0280938D028092D3
:10192000820290928302A0928402B092850278CFC4
:1019300020E030E040E85FE3C501B4010E94030FFE
:1019400087FF0FC01092900210928F0210934B01EC
:1019500000934A0160E088E00E94C2010E944604B0
:10196000C4CE2AE939E949E551E4C701B6010E942C
:10197000621018165CF460E088E00E94C20124E660
:1019800030E030938E0220938D024ACF2AE939E964
:1019900049E551E4C701B6010E94030F87FFC0CE9D
:1019A00084E690E090938E0280938D020E9446041C
:1019B00061E088E00E94C20120E030E048E551E4A7
:1019C000C701B6010E94030F87FFAACE54CF60E083
:1019D00088E00E94C20180914A0190914B01181643
:1019E000190634F4019790934B0180934A0198CEE5
:1019F0002AE939E949E551E4C701B6010E946210BC
:101A000018168CF4A7019601C301B2010E9462105E
:101A100018164CF43092900220928F0261E088E018
:101A20000E94C2017DCE20E030E040E351E4C701D6
:101A3000B6010E94621018160CF072CE2AE939E93C
:101A400049E551E4C701B6010E94030F87FF68CE44
:101A5000A7019601C301B2010E94621018160CF092
:101A60005FCE82E090E02FCF26E636E64EE351E4EB
:101A7000C701B6010E946210181614F48BE070CEF4
:101A80008DE06ECE90E080E08CCE10925B0360E043
:101A900080E593E00E94480361E080E00E94AA068E
:101AA00060919D0270919E0280919F029091A00290
:101AB00042E00E94D2058EE991E00E94630562E057
:101AC00080E00E94AA066091990270919A0280912A
:101AD0009B0290919C0242E00E94D20581EA91E033
:101AE0000E94630563E080E00E94AA06609195026F
:101AF00070919602809197029091980242E00E9424
:101B0000D20583EA91E00E94630561E088E00E94CB
:101B1000AA06609191027091920280919302909135
:101B2000940242E00E94D20562E088E00E94AA0688
:101B300080918F02909190028130910509F0D2C07E
:101B400086EA91E00E9463052DEC3CEC44E351E40D
:101B5000609191027091920280919302909194020F
:101B60000E94960E20E030E048EC52E40E9467109C
:101B700020E333E343EB5FE30E94080F0E947A0FF8
:101B80006536710514F064E670E07B0177FF02C0F2
:101B9000F12CE12C60E08CE00E94AA06C70164E110
:101BA00070E00E94ED10862F0E949B0563E088E0A4
:101BB0000E94AA06C7016AE070E00E94ED1097013A
:101BC000281B390BC9010E94A40584EC91E00E94F6
:101BD000630560E08FE00E94AA0688EC91E00E9415
:101BE000630560E083E10E94AA0667E080E593E078
:101BF0000E94950561E08FE00E94AA068AEB91E0C1
:101C00000E94630561E08FE00E94AA0680918F0226
:101C100090919002892B09F07EC090E080E00E94B4
:101C2000A4058CEC91E00E94630562E08FE00E94C5
:101C3000AA068FEC91E00E94630563E08FE00E94AA
:101C4000AA0680918C02882309F46AC084ED91E091
:101C50000E9463058091860290918702019690937D
:101C600087028093860265E070E00E94D910FC0133
:101C7000EB5AFE4F80810E949B052FB7F89480910C
:101C8000880290918902A0918A02B0918B022FBFA5
:101C90004091A1025091A2026091A3027091A4020E
:101CA000841B950BA60BB70B89399A43A105B10587
:101CB000D0F588E080935B0360E080E593E00E94CC
:101CC000480380E090E0892B09F483CC0E94F60061
:101CD000882309F47ECC0E9400007BCC222309F4E7
:101CE000DBCE7ACD009719F48CEA91E02BCF8230CD
:101CF000910519F482EB91E025CF039709F024CFE9
:101D000088EB91E00E94630562E088E00E94AA06E9
:101D10008EEB91E017CF80918D0290918E027FCF54
:101D200089ED91E095CF10925B03C6CF5058BB2749
:101D3000AA270E94AE0E0C9428100E941A1038F0A8
:101D40000E94211020F039F49F3F19F426F40C94DE
:101D500017100EF4E095E7FB0C941110E92F0E9488
:101D6000391058F3BA17620773078407950720F0F4
:101D700079F4A6F50C945B100EF4E0950B2EBA2FB7
:101D8000A02D0B01B90190010C01CA01A001112481
:101D9000FF27591B99F0593F50F4503E68F11A162D
:101DA000F040A22F232F342F4427585FF3CF4695BE
:101DB00037952795A795F0405395C9F77EF41F16E0
:101DC000BA0B620B730B840BBAF09150A1F0FF0FAA
:101DD000BB1F661F771F881FC2F70EC0BA0F621F96
:101DE000731F841F48F4879577956795B795F79586
:101DF0009E3F08F0B0CF9395880F08F09927EE0F1B
:101E00009795879508950E94ED0F08F481E0089555
:101E10000E941C0F0C9428100E94211058F00E9460
:101E20001A1040F029F45F3F29F00C941110511161
:101E30000C945C100C9417100E94391068F39923CD
:101E4000B1F3552391F3951B550BBB27AA276217B6
:101E50007307840738F09F5F5F4F220F331F441FC3
:101E6000AA1FA9F335D00E2E3AF0E0E832D09150F7
:101E70005040E695001CCAF72BD0FE2F29D0660FE4
:101E8000771F881FBB1F261737074807AB07B0E827
:101E900009F0BB0B802DBF01FF2793585F4F3AF02D
:101EA0009E3F510578F00C9411100C945C105F3F2C
:101EB000E4F3983ED4F3869577956795B795F795B3
:101EC0009F5FC9F7880F911D9695879597F908959B
:101ED000E1E0660F771F881FBB1F62177307840737
:101EE000BA0720F0621B730B840BBA0BEE1F88F746
:101EF000E09508950E94810F6894B1110C945C10D4
:101F000008950E94411088F09F5798F0B92F9927A3
:101F1000B751B0F0E1F0660F771F881F991F1AF0D4
:101F2000BA95C9F714C0B13091F00E945B10B1E0CE
:101F300008950C945B10672F782F8827B85F39F0CD
:101F4000B93FCCF3869577956795B395D9F73EF46D
:101F500090958095709561957F4F8F4F9F4F089515
:101F6000E89409C097FB3EF4909580957095619533
:101F70007F4F8F4F9F4F9923A9F0F92F96E9BB27E9
:101F80009395F695879577956795B795F111F8CF65
:101F9000FAF4BB0F11F460FF1BC06F5F7F4F8F4FD0
:101FA0009F4F16C0882311F096E911C0772321F0C6
:101FB0009EE8872F762F05C0662371F096E8862F5E
:101FC00070E060E02AF09A95660F771F881FDAF7B5
:101FD000880F9695879597F90895990F0008550FE2
:101FE000AA0BE0E8FEEF16161706E807F907C0F09F
:101FF00012161306E407F50798F0621B730B840BA7
:10200000950B39F40A2661F0232B242B252B21F480
:1020100008950A2609F4A140A6958FEF811D811D20
:10202000089597F99F6780E870E060E008959FEF5A
:1020300080EC089500240A9416161706180609065F
:10204000089500240A94121613061406050608952E
:10205000092E0394000C11F4882352F0BB0F40F4B6
:10206000BF2B11F460FF04C06F5F7F4F8F4F9F4FF6
:10207000089557FD9058440F551F59F05F3F71F078
:102080004795880F97FB991F61F09F3F79F08795DF
:102090000895121613061406551FF2CF4695F1DF68
:1020A00008C0161617061806991FF1CF86957105F8
:1020B000610508940895E894BB2766277727CB012C
:1020C00097F908950E94ED0F08F48FEF08950E948C
:1020D0007A100C9428100E941A1038F00E942110D7
:1020E00020F0952311F00C9411100C94171011246A
:1020F0000C945C100E94391070F3959FC1F3950FFA
:1021000050E0551F629FF001729FBB27F00DB11D7B
:10211000639FAA27F00DB11DAA1F649F6627B00D0B
:10212000A11D661F829F2227B00DA11D621F739FF4
:10213000B00DA11D621F839FA00D611D221F749F02
:102140003327A00D611D231F849F600D211D822F49
:10215000762F6A2F11249F5750409AF0F1F0882370
:102160004AF0EE0FFF1FBB1F661F771F881F91509D
:102170005040A9F79E3F510580F00C9411100C942B
:102180005C105F3FE4F3983ED4F3869577956795AE
:10219000B795F795E7959F5FC1F7FE2B880F911DC7
:1021A0009695879597F908950E94ED0F880B990BE6
:1021B0000895AA1BBB1B51E107C0AA1FBB1FA6178E
:1021C000B70710F0A61BB70B881F991F5A95A9F7E0
:1021D00080959095BC01CD01089597FB072E16F4CC
:1021E000009407D077FD09D00E94D91007FC05D0D4
:1021F0003EF4909581959F4F0895709561957F4F1E
:102200000895A1E21A2EAA1BBB1BFD010DC0AA1F37
:10221000BB1FEE1FFF1FA217B307E407F50720F04F
:10222000A21BB30BE40BF50B661F771F881F991FCA
:102230001A9469F760957095809590959B01AC0113
:10224000BD01CF010895052E97FB1EF400940E9456
:102250003A1157FD07D00E94011107FC03D04EF43C
:102260000C943A1150954095309521953F4F4F4F22
:102270005F4F089590958095709561957F4F8F4F32
:102280009F4F0895A29FB001B39FC001A39F700DFF
:10229000811D1124911DB29F700D811D1124911D6E
:1022A00008950E944211B7FF0895821B930B089571
:1022B0000E944211A59F900DB49F900DA49F800D88
:1022C000911D11240895EE0FFF1F0590F491E02D4C
:0622D0000994F894FFCF11
:1022D60010100808040402001F151F151F151F0003
:1022E6001D151515151517000E1B111111111F00BF
:1022F6000E1B1111111F1F000E1B11111F1F1F0096
:102306000E1B1F1F1F1F1F000E1F1F1F1F1F1F003B
:102316000E1F1F1F1F1F1F000100090001000040A4
:1023260000140054002A2A2A2020000000002C0154
:102336008C00B9007901EA00C800DC00000000004A
:102346001903EC023004DE02E502E202DF020000BD
:10235600000095058C0030042F046E616E00696ED6
:1023660066006F766600534F4C004241540056207B
:102376000041005720006F6E202020006F66662007
:10238600200062756C6B2000202020202000666CE7
:102396006F6174002520200050574D002520004C09
:0E23A6006F6164004F6E2020004F66662000BD
:00000001FF
